{"contracts/TicTacToe.sol":{"TicTacToe":{"abi":[{"inputs":[],"stateMutability":"nonpayable","type":"constructor"},{"inputs":[],"name":"createGame","outputs":[],"stateMutability":"nonpayable","type":"function"},{"inputs":[],"name":"gameCount","outputs":[{"internalType":"uint256","name":"","type":"uint256"}],"stateMutability":"view","type":"function"},{"inputs":[{"internalType":"uint256","name":"","type":"uint256"}],"name":"games","outputs":[{"internalType":"address","name":"currentPlayer","type":"address"},{"internalType":"bool","name":"isStarted","type":"bool"},{"internalType":"address","name":"winner","type":"address"},{"internalType":"bool","name":"tie","type":"bool"}],"stateMutability":"view","type":"function"},{"inputs":[{"internalType":"uint256","name":"_gameId","type":"uint256"}],"name":"getGameInfo","outputs":[{"internalType":"address[]","name":"players","type":"address[]"},{"internalType":"address","name":"currentPlayer","type":"address"},{"internalType":"address[][]","name":"board","type":"address[][]"},{"internalType":"bool","name":"isStarted","type":"bool"},{"internalType":"address","name":"winner","type":"address"},{"internalType":"bool","name":"tie","type":"bool"}],"stateMutability":"view","type":"function"},{"inputs":[{"internalType":"uint256","name":"_gameId","type":"uint256"}],"name":"joinGame","outputs":[],"stateMutability":"nonpayable","type":"function"},{"inputs":[{"internalType":"uint256","name":"_gameId","type":"uint256"},{"internalType":"uint256","name":"_row","type":"uint256"},{"internalType":"uint256","name":"_col","type":"uint256"}],"name":"play","outputs":[],"stateMutability":"nonpayable","type":"function"},{"inputs":[{"internalType":"uint256","name":"_gameId","type":"uint256"}],"name":"startGame","outputs":[],"stateMutability":"nonpayable","type":"function"}],"evm":{"bytecode":{"linkReferences":{},"object":"608060405234801561001057600080fd5b506000600181905550611c56806100286000396000f3fe608060405234801561001057600080fd5b506004361061007d5760003560e01c80637255d7291161005b5780637255d72914610108578063ab2e5a1f14610112578063e5ed1d591461012e578063efaa55a01461014a5761007d565b8063117a5b901461008257806347e1d550146100b55780634d1975b4146100ea575b600080fd5b61009c6004803603810190610097919061140f565b610166565b6040516100ac9493929190611498565b60405180910390f35b6100cf60048036038101906100ca919061140f565b6101f0565b6040516100e1969594939291906116cc565b60405180910390f35b6100f26104c2565b6040516100ff919061174a565b60405180910390f35b6101106104c8565b005b61012c60048036038101906101279190611765565b6104e2565b005b6101486004803603810190610143919061140f565b6108e3565b005b610164600480360381019061015f919061140f565b610a7e565b005b60006020528060005260406000206000915090508060010160009054906101000a900473ffffffffffffffffffffffffffffffffffffffff16908060030160009054906101000a900460ff16908060030160019054906101000a900473ffffffffffffffffffffffffffffffffffffffff16908060030160159054906101000a900460ff16905084565b60606000606060008060008060008089815260200190815260200160002090508060000180548060200260200160405190810160405280929190818152602001828054801561029457602002820191906000526020600020905b8160009054906101000a900473ffffffffffffffffffffffffffffffffffffffff1673ffffffffffffffffffffffffffffffffffffffff168152602001906001019080831161024a575b505050505096508060010160009054906101000a900473ffffffffffffffffffffffffffffffffffffffff169550600367ffffffffffffffff8111156102dd576102dc6117b8565b5b60405190808252806020026020018201604052801561031057816020015b60608152602001906001900390816102fb5790505b50945060005b600381101561046857600367ffffffffffffffff81111561033a576103396117b8565b5b6040519080825280602002602001820160405280156103685781602001602082028036833780820191505090505b5086828151811061037c5761037b6117e7565b5b602002602001018190525060005b600381101561045457826002016000838152602001908152602001600020600082815260200190815260200160002060009054906101000a900473ffffffffffffffffffffffffffffffffffffffff168783815181106103ed576103ec6117e7565b5b60200260200101518281518110610407576104066117e7565b5b602002602001019073ffffffffffffffffffffffffffffffffffffffff16908173ffffffffffffffffffffffffffffffffffffffff1681525050808061044c90611845565b91505061038a565b50808061046090611845565b915050610316565b508060030160009054906101000a900460ff1693508060030160019054906101000a900473ffffffffffffffffffffffffffffffffffffffff1692508060030160159054906101000a900460ff1691505091939550919395565b60015481565b600160008154809291906104db90611845565b9190505550565b60008060008581526020019081526020016000209050600115158160030160009054906101000a900460ff16151514610550576040517f08c379a0000000000000000000000000000000000000000000000000000000008152600401610547906118ea565b60405180910390fd5b600073ffffffffffffffffffffffffffffffffffffffff16816002016000858152602001908152602001600020600084815260200190815260200160002060009054906101000a900473ffffffffffffffffffffffffffffffffffffffff1673ffffffffffffffffffffffffffffffffffffffff1614610605576040517f08c379a00000000000000000000000000000000000000000000000000000000081526004016105fc90611956565b60405180910390fd5b8060010160009054906101000a900473ffffffffffffffffffffffffffffffffffffffff1673ffffffffffffffffffffffffffffffffffffffff163373ffffffffffffffffffffffffffffffffffffffff1614610697576040517f08c379a000000000000000000000000000000000000000000000000000000000815260040161068e906119c2565b60405180910390fd5b33816002016000858152602001908152602001600020600084815260200190815260200160002060006101000a81548173ffffffffffffffffffffffffffffffffffffffff021916908373ffffffffffffffffffffffffffffffffffffffff1602179055506107098160020133610bbb565b1561079557600080600086815260200190815260200160002060030160006101000a81548160ff0219169083151502179055503360008086815260200190815260200160002060030160016101000a81548173ffffffffffffffffffffffffffffffffffffffff021916908373ffffffffffffffffffffffffffffffffffffffff1602179055506108dd565b6107a1816002016111e9565b1561080757600080600086815260200190815260200160002060030160006101000a81548160ff021916908315150217905550600160008086815260200190815260200160002060030160156101000a81548160ff0219169083151502179055506108dc565b6108998160000180548060200260200160405190810160405280929190818152602001828054801561088e57602002820191906000526020600020905b8160009054906101000a900473ffffffffffffffffffffffffffffffffffffffff1673ffffffffffffffffffffffffffffffffffffffff1681526020019060010190808311610844575b5050505050336112ba565b8160010160006101000a81548173ffffffffffffffffffffffffffffffffffffffff021916908373ffffffffffffffffffffffffffffffffffffffff1602179055505b5b50505050565b6002600080838152602001908152602001600020600001805490501461093e576040517f08c379a000000000000000000000000000000000000000000000000000000000815260040161093590611a54565b60405180910390fd5b6000151560008083815260200190815260200160002060030160009054906101000a900460ff161515146109a7576040517f08c379a000000000000000000000000000000000000000000000000000000000815260040161099e90611ac0565b60405180910390fd5b600160008083815260200190815260200160002060030160006101000a81548160ff0219169083151502179055506000808281526020019081526020016000206000016000815481106109fd576109fc6117e7565b5b9060005260206000200160009054906101000a900473ffffffffffffffffffffffffffffffffffffffff1660008083815260200190815260200160002060010160006101000a81548173ffffffffffffffffffffffffffffffffffffffff021916908373ffffffffffffffffffffffffffffffffffffffff16021790555050565b60026000808381526020019081526020016000206000018054905010610ad9576040517f08c379a0000000000000000000000000000000000000000000000000000000008152600401610ad090611b2c565b60405180910390fd5b6000151560008083815260200190815260200160002060030160009054906101000a900460ff16151514610b42576040517f08c379a0000000000000000000000000000000000000000000000000000000008152600401610b3990611ac0565b60405180910390fd5b600080828152602001908152602001600020600001339080600181540180825580915050600190039060005260206000200160009091909190916101000a81548173ffffffffffffffffffffffffffffffffffffffff021916908373ffffffffffffffffffffffffffffffffffffffff16021790555050565b600080600090505b6003811015610d56578273ffffffffffffffffffffffffffffffffffffffff16846000838152602001908152602001600020600080815260200190815260200160002060009054906101000a900473ffffffffffffffffffffffffffffffffffffffff1673ffffffffffffffffffffffffffffffffffffffff16148015610cb957508273ffffffffffffffffffffffffffffffffffffffff1684600083815260200190815260200160002060006001815260200190815260200160002060009054906101000a900473ffffffffffffffffffffffffffffffffffffffff1673ffffffffffffffffffffffffffffffffffffffff16145b8015610d3457508273ffffffffffffffffffffffffffffffffffffffff1684600083815260200190815260200160002060006002815260200190815260200160002060009054906101000a900473ffffffffffffffffffffffffffffffffffffffff1673ffffffffffffffffffffffffffffffffffffffff16145b15610d435760019150506111e3565b8080610d4e90611845565b915050610bc3565b5060005b6003811015610eed578273ffffffffffffffffffffffffffffffffffffffff16846000808152602001908152602001600020600083815260200190815260200160002060009054906101000a900473ffffffffffffffffffffffffffffffffffffffff1673ffffffffffffffffffffffffffffffffffffffff16148015610e5057508273ffffffffffffffffffffffffffffffffffffffff1684600060018152602001908152602001600020600083815260200190815260200160002060009054906101000a900473ffffffffffffffffffffffffffffffffffffffff1673ffffffffffffffffffffffffffffffffffffffff16145b8015610ecb57508273ffffffffffffffffffffffffffffffffffffffff1684600060028152602001908152602001600020600083815260200190815260200160002060009054906101000a900473ffffffffffffffffffffffffffffffffffffffff1673ffffffffffffffffffffffffffffffffffffffff16145b15610eda5760019150506111e3565b8080610ee590611845565b915050610d5a565b508173ffffffffffffffffffffffffffffffffffffffff16836000808152602001908152602001600020600080815260200190815260200160002060009054906101000a900473ffffffffffffffffffffffffffffffffffffffff1673ffffffffffffffffffffffffffffffffffffffff16148015610fdc57508173ffffffffffffffffffffffffffffffffffffffff168360006001815260200190815260200160002060006001815260200190815260200160002060009054906101000a900473ffffffffffffffffffffffffffffffffffffffff1673ffffffffffffffffffffffffffffffffffffffff16145b801561105857508173ffffffffffffffffffffffffffffffffffffffff168360006002815260200190815260200160002060006002815260200190815260200160002060009054906101000a900473ffffffffffffffffffffffffffffffffffffffff1673ffffffffffffffffffffffffffffffffffffffff16145b1561106657600190506111e3565b8173ffffffffffffffffffffffffffffffffffffffff1683600080815260200190815260200160002060006002815260200190815260200160002060009054906101000a900473ffffffffffffffffffffffffffffffffffffffff1673ffffffffffffffffffffffffffffffffffffffff1614801561115557508173ffffffffffffffffffffffffffffffffffffffff168360006001815260200190815260200160002060006001815260200190815260200160002060009054906101000a900473ffffffffffffffffffffffffffffffffffffffff1673ffffffffffffffffffffffffffffffffffffffff16145b80156111d057508173ffffffffffffffffffffffffffffffffffffffff1683600060028152602001908152602001600020600080815260200190815260200160002060009054906101000a900473ffffffffffffffffffffffffffffffffffffffff1673ffffffffffffffffffffffffffffffffffffffff16145b156111de57600190506111e3565b600090505b92915050565b600080600090505b60038110156112af5760005b600381101561129b57600073ffffffffffffffffffffffffffffffffffffffff16846000848152602001908152602001600020600083815260200190815260200160002060009054906101000a900473ffffffffffffffffffffffffffffffffffffffff1673ffffffffffffffffffffffffffffffffffffffff1603611288576000925050506112b5565b808061129390611845565b9150506111fd565b5080806112a790611845565b9150506111f1565b50600190505b919050565b600080600090505b8351811015611392578273ffffffffffffffffffffffffffffffffffffffff168482815181106112f5576112f46117e7565b5b602002602001015173ffffffffffffffffffffffffffffffffffffffff160361137f57600184516113269190611b4c565b810361135057836000815181106113405761133f6117e7565b5b60200260200101519150506113ce565b8360018261135e9190611b80565b8151811061136f5761136e6117e7565b5b60200260200101519150506113ce565b808061138a90611845565b9150506112c2565b506040517f08c379a00000000000000000000000000000000000000000000000000000000081526004016113c590611c00565b60405180910390fd5b92915050565b600080fd5b6000819050919050565b6113ec816113d9565b81146113f757600080fd5b50565b600081359050611409816113e3565b92915050565b600060208284031215611425576114246113d4565b5b6000611433848285016113fa565b91505092915050565b600073ffffffffffffffffffffffffffffffffffffffff82169050919050565b60006114678261143c565b9050919050565b6114778161145c565b82525050565b60008115159050919050565b6114928161147d565b82525050565b60006080820190506114ad600083018761146e565b6114ba6020830186611489565b6114c7604083018561146e565b6114d46060830184611489565b95945050505050565b600081519050919050565b600082825260208201905092915050565b6000819050602082019050919050565b6115128161145c565b82525050565b60006115248383611509565b60208301905092915050565b6000602082019050919050565b6000611548826114dd565b61155281856114e8565b935061155d836114f9565b8060005b8381101561158e5781516115758882611518565b975061158083611530565b925050600181019050611561565b5085935050505092915050565b600081519050919050565b600082825260208201905092915050565b6000819050602082019050919050565b600082825260208201905092915050565b60006115e3826114dd565b6115ed81856115c7565b93506115f8836114f9565b8060005b838110156116295781516116108882611518565b975061161b83611530565b9250506001810190506115fc565b5085935050505092915050565b600061164283836115d8565b905092915050565b6000602082019050919050565b60006116628261159b565b61166c81856115a6565b93508360208202850161167e856115b7565b8060005b858110156116ba578484038952815161169b8582611636565b94506116a68361164a565b925060208a01995050600181019050611682565b50829750879550505050505092915050565b600060c08201905081810360008301526116e6818961153d565b90506116f5602083018861146e565b81810360408301526117078187611657565b90506117166060830186611489565b611723608083018561146e565b61173060a0830184611489565b979650505050505050565b611744816113d9565b82525050565b600060208201905061175f600083018461173b565b92915050565b60008060006060848603121561177e5761177d6113d4565b5b600061178c868287016113fa565b935050602061179d868287016113fa565b92505060406117ae868287016113fa565b9150509250925092565b7f4e487b7100000000000000000000000000000000000000000000000000000000600052604160045260246000fd5b7f4e487b7100000000000000000000000000000000000000000000000000000000600052603260045260246000fd5b7f4e487b7100000000000000000000000000000000000000000000000000000000600052601160045260246000fd5b6000611850826113d9565b91507fffffffffffffffffffffffffffffffffffffffffffffffffffffffffffffffff820361188257611881611816565b5b600182019050919050565b600082825260208201905092915050565b7f47616d6520686173206e6f742073746172746564207965742e00000000000000600082015250565b60006118d460198361188d565b91506118df8261189e565b602082019050919050565b60006020820190508181036000830152611903816118c7565b9050919050565b7f43656c6c20697320616c7265616479206f636375706965642e00000000000000600082015250565b600061194060198361188d565b915061194b8261190a565b602082019050919050565b6000602082019050818103600083015261196f81611933565b9050919050565b7f4e6f7420796f7572207475726e2e000000000000000000000000000000000000600082015250565b60006119ac600e8361188d565b91506119b782611976565b602082019050919050565b600060208201905081810360008301526119db8161199f565b9050919050565b7f4e656564203220706c617965727320746f207374617274207468652067616d6560008201527f2e00000000000000000000000000000000000000000000000000000000000000602082015250565b6000611a3e60218361188d565b9150611a49826119e2565b604082019050919050565b60006020820190508181036000830152611a6d81611a31565b9050919050565b7f47616d652068617320616c726561647920737461727465642e00000000000000600082015250565b6000611aaa60198361188d565b9150611ab582611a74565b602082019050919050565b60006020820190508181036000830152611ad981611a9d565b9050919050565b7f47616d6520697320616c72656164792066756c6c2e0000000000000000000000600082015250565b6000611b1660158361188d565b9150611b2182611ae0565b602082019050919050565b60006020820190508181036000830152611b4581611b09565b9050919050565b6000611b57826113d9565b9150611b62836113d9565b9250828203905081811115611b7a57611b79611816565b5b92915050565b6000611b8b826113d9565b9150611b96836113d9565b9250828201905080821115611bae57611bad611816565b5b92915050565b7f506c61796572206e6f7420666f756e642e000000000000000000000000000000600082015250565b6000611bea60118361188d565b9150611bf582611bb4565b602082019050919050565b60006020820190508181036000830152611c1981611bdd565b905091905056fea2646970667358221220c9eaf4c1fa77d5bbf975daf19d71387ee6d80bea1d65f258d4fda45bb9f15dd164736f6c63430008120033","opcodes":"PUSH1 0x80 PUSH1 0x40 MSTORE CALLVALUE DUP1 ISZERO PUSH2 0x10 JUMPI PUSH1 0x0 DUP1 REVERT JUMPDEST POP PUSH1 0x0 PUSH1 0x1 DUP2 SWAP1 SSTORE POP PUSH2 0x1C56 DUP1 PUSH2 0x28 PUSH1 0x0 CODECOPY PUSH1 0x0 RETURN INVALID PUSH1 0x80 PUSH1 0x40 MSTORE CALLVALUE DUP1 ISZERO PUSH2 0x10 JUMPI PUSH1 0x0 DUP1 REVERT JUMPDEST POP PUSH1 0x4 CALLDATASIZE LT PUSH2 0x7D JUMPI PUSH1 0x0 CALLDATALOAD PUSH1 0xE0 SHR DUP1 PUSH4 0x7255D729 GT PUSH2 0x5B JUMPI DUP1 PUSH4 0x7255D729 EQ PUSH2 0x108 JUMPI DUP1 PUSH4 0xAB2E5A1F EQ PUSH2 0x112 JUMPI DUP1 PUSH4 0xE5ED1D59 EQ PUSH2 0x12E JUMPI DUP1 PUSH4 0xEFAA55A0 EQ PUSH2 0x14A JUMPI PUSH2 0x7D JUMP JUMPDEST DUP1 PUSH4 0x117A5B90 EQ PUSH2 0x82 JUMPI DUP1 PUSH4 0x47E1D550 EQ PUSH2 0xB5 JUMPI DUP1 PUSH4 0x4D1975B4 EQ PUSH2 0xEA JUMPI JUMPDEST PUSH1 0x0 DUP1 REVERT JUMPDEST PUSH2 0x9C PUSH1 0x4 DUP1 CALLDATASIZE SUB DUP2 ADD SWAP1 PUSH2 0x97 SWAP2 SWAP1 PUSH2 0x140F JUMP JUMPDEST PUSH2 0x166 JUMP JUMPDEST PUSH1 0x40 MLOAD PUSH2 0xAC SWAP5 SWAP4 SWAP3 SWAP2 SWAP1 PUSH2 0x1498 JUMP JUMPDEST PUSH1 0x40 MLOAD DUP1 SWAP2 SUB SWAP1 RETURN JUMPDEST PUSH2 0xCF PUSH1 0x4 DUP1 CALLDATASIZE SUB DUP2 ADD SWAP1 PUSH2 0xCA SWAP2 SWAP1 PUSH2 0x140F JUMP JUMPDEST PUSH2 0x1F0 JUMP JUMPDEST PUSH1 0x40 MLOAD PUSH2 0xE1 SWAP7 SWAP6 SWAP5 SWAP4 SWAP3 SWAP2 SWAP1 PUSH2 0x16CC JUMP JUMPDEST PUSH1 0x40 MLOAD DUP1 SWAP2 SUB SWAP1 RETURN JUMPDEST PUSH2 0xF2 PUSH2 0x4C2 JUMP JUMPDEST PUSH1 0x40 MLOAD PUSH2 0xFF SWAP2 SWAP1 PUSH2 0x174A JUMP JUMPDEST PUSH1 0x40 MLOAD DUP1 SWAP2 SUB SWAP1 RETURN JUMPDEST PUSH2 0x110 PUSH2 0x4C8 JUMP JUMPDEST STOP JUMPDEST PUSH2 0x12C PUSH1 0x4 DUP1 CALLDATASIZE SUB DUP2 ADD SWAP1 PUSH2 0x127 SWAP2 SWAP1 PUSH2 0x1765 JUMP JUMPDEST PUSH2 0x4E2 JUMP JUMPDEST STOP JUMPDEST PUSH2 0x148 PUSH1 0x4 DUP1 CALLDATASIZE SUB DUP2 ADD SWAP1 PUSH2 0x143 SWAP2 SWAP1 PUSH2 0x140F JUMP JUMPDEST PUSH2 0x8E3 JUMP JUMPDEST STOP JUMPDEST PUSH2 0x164 PUSH1 0x4 DUP1 CALLDATASIZE SUB DUP2 ADD SWAP1 PUSH2 0x15F SWAP2 SWAP1 PUSH2 0x140F JUMP JUMPDEST PUSH2 0xA7E JUMP JUMPDEST STOP JUMPDEST PUSH1 0x0 PUSH1 0x20 MSTORE DUP1 PUSH1 0x0 MSTORE PUSH1 0x40 PUSH1 0x0 KECCAK256 PUSH1 0x0 SWAP2 POP SWAP1 POP DUP1 PUSH1 0x1 ADD PUSH1 0x0 SWAP1 SLOAD SWAP1 PUSH2 0x100 EXP SWAP1 DIV PUSH20 0xFFFFFFFFFFFFFFFFFFFFFFFFFFFFFFFFFFFFFFFF AND SWAP1 DUP1 PUSH1 0x3 ADD PUSH1 0x0 SWAP1 SLOAD SWAP1 PUSH2 0x100 EXP SWAP1 DIV PUSH1 0xFF AND SWAP1 DUP1 PUSH1 0x3 ADD PUSH1 0x1 SWAP1 SLOAD SWAP1 PUSH2 0x100 EXP SWAP1 DIV PUSH20 0xFFFFFFFFFFFFFFFFFFFFFFFFFFFFFFFFFFFFFFFF AND SWAP1 DUP1 PUSH1 0x3 ADD PUSH1 0x15 SWAP1 SLOAD SWAP1 PUSH2 0x100 EXP SWAP1 DIV PUSH1 0xFF AND SWAP1 POP DUP5 JUMP JUMPDEST PUSH1 0x60 PUSH1 0x0 PUSH1 0x60 PUSH1 0x0 DUP1 PUSH1 0x0 DUP1 PUSH1 0x0 DUP1 DUP10 DUP2 MSTORE PUSH1 0x20 ADD SWAP1 DUP2 MSTORE PUSH1 0x20 ADD PUSH1 0x0 KECCAK256 SWAP1 POP DUP1 PUSH1 0x0 ADD DUP1 SLOAD DUP1 PUSH1 0x20 MUL PUSH1 0x20 ADD PUSH1 0x40 MLOAD SWAP1 DUP2 ADD PUSH1 0x40 MSTORE DUP1 SWAP3 SWAP2 SWAP1 DUP2 DUP2 MSTORE PUSH1 0x20 ADD DUP3 DUP1 SLOAD DUP1 ISZERO PUSH2 0x294 JUMPI PUSH1 0x20 MUL DUP3 ADD SWAP2 SWAP1 PUSH1 0x0 MSTORE PUSH1 0x20 PUSH1 0x0 KECCAK256 SWAP1 JUMPDEST DUP2 PUSH1 0x0 SWAP1 SLOAD SWAP1 PUSH2 0x100 EXP SWAP1 DIV PUSH20 0xFFFFFFFFFFFFFFFFFFFFFFFFFFFFFFFFFFFFFFFF AND PUSH20 0xFFFFFFFFFFFFFFFFFFFFFFFFFFFFFFFFFFFFFFFF AND DUP2 MSTORE PUSH1 0x20 ADD SWAP1 PUSH1 0x1 ADD SWAP1 DUP1 DUP4 GT PUSH2 0x24A JUMPI JUMPDEST POP POP POP POP POP SWAP7 POP DUP1 PUSH1 0x1 ADD PUSH1 0x0 SWAP1 SLOAD SWAP1 PUSH2 0x100 EXP SWAP1 DIV PUSH20 0xFFFFFFFFFFFFFFFFFFFFFFFFFFFFFFFFFFFFFFFF AND SWAP6 POP PUSH1 0x3 PUSH8 0xFFFFFFFFFFFFFFFF DUP2 GT ISZERO PUSH2 0x2DD JUMPI PUSH2 0x2DC PUSH2 0x17B8 JUMP JUMPDEST JUMPDEST PUSH1 0x40 MLOAD SWAP1 DUP1 DUP3 MSTORE DUP1 PUSH1 0x20 MUL PUSH1 0x20 ADD DUP3 ADD PUSH1 0x40 MSTORE DUP1 ISZERO PUSH2 0x310 JUMPI DUP2 PUSH1 0x20 ADD JUMPDEST PUSH1 0x60 DUP2 MSTORE PUSH1 0x20 ADD SWAP1 PUSH1 0x1 SWAP1 SUB SWAP1 DUP2 PUSH2 0x2FB JUMPI SWAP1 POP JUMPDEST POP SWAP5 POP PUSH1 0x0 JUMPDEST PUSH1 0x3 DUP2 LT ISZERO PUSH2 0x468 JUMPI PUSH1 0x3 PUSH8 0xFFFFFFFFFFFFFFFF DUP2 GT ISZERO PUSH2 0x33A JUMPI PUSH2 0x339 PUSH2 0x17B8 JUMP JUMPDEST JUMPDEST PUSH1 0x40 MLOAD SWAP1 DUP1 DUP3 MSTORE DUP1 PUSH1 0x20 MUL PUSH1 0x20 ADD DUP3 ADD PUSH1 0x40 MSTORE DUP1 ISZERO PUSH2 0x368 JUMPI DUP2 PUSH1 0x20 ADD PUSH1 0x20 DUP3 MUL DUP1 CALLDATASIZE DUP4 CALLDATACOPY DUP1 DUP3 ADD SWAP2 POP POP SWAP1 POP JUMPDEST POP DUP7 DUP3 DUP2 MLOAD DUP2 LT PUSH2 0x37C JUMPI PUSH2 0x37B PUSH2 0x17E7 JUMP JUMPDEST JUMPDEST PUSH1 0x20 MUL PUSH1 0x20 ADD ADD DUP2 SWAP1 MSTORE POP PUSH1 0x0 JUMPDEST PUSH1 0x3 DUP2 LT ISZERO PUSH2 0x454 JUMPI DUP3 PUSH1 0x2 ADD PUSH1 0x0 DUP4 DUP2 MSTORE PUSH1 0x20 ADD SWAP1 DUP2 MSTORE PUSH1 0x20 ADD PUSH1 0x0 KECCAK256 PUSH1 0x0 DUP3 DUP2 MSTORE PUSH1 0x20 ADD SWAP1 DUP2 MSTORE PUSH1 0x20 ADD PUSH1 0x0 KECCAK256 PUSH1 0x0 SWAP1 SLOAD SWAP1 PUSH2 0x100 EXP SWAP1 DIV PUSH20 0xFFFFFFFFFFFFFFFFFFFFFFFFFFFFFFFFFFFFFFFF AND DUP8 DUP4 DUP2 MLOAD DUP2 LT PUSH2 0x3ED JUMPI PUSH2 0x3EC PUSH2 0x17E7 JUMP JUMPDEST JUMPDEST PUSH1 0x20 MUL PUSH1 0x20 ADD ADD MLOAD DUP3 DUP2 MLOAD DUP2 LT PUSH2 0x407 JUMPI PUSH2 0x406 PUSH2 0x17E7 JUMP JUMPDEST JUMPDEST PUSH1 0x20 MUL PUSH1 0x20 ADD ADD SWAP1 PUSH20 0xFFFFFFFFFFFFFFFFFFFFFFFFFFFFFFFFFFFFFFFF AND SWAP1 DUP2 PUSH20 0xFFFFFFFFFFFFFFFFFFFFFFFFFFFFFFFFFFFFFFFF AND DUP2 MSTORE POP POP DUP1 DUP1 PUSH2 0x44C SWAP1 PUSH2 0x1845 JUMP JUMPDEST SWAP2 POP POP PUSH2 0x38A JUMP JUMPDEST POP DUP1 DUP1 PUSH2 0x460 SWAP1 PUSH2 0x1845 JUMP JUMPDEST SWAP2 POP POP PUSH2 0x316 JUMP JUMPDEST POP DUP1 PUSH1 0x3 ADD PUSH1 0x0 SWAP1 SLOAD SWAP1 PUSH2 0x100 EXP SWAP1 DIV PUSH1 0xFF AND SWAP4 POP DUP1 PUSH1 0x3 ADD PUSH1 0x1 SWAP1 SLOAD SWAP1 PUSH2 0x100 EXP SWAP1 DIV PUSH20 0xFFFFFFFFFFFFFFFFFFFFFFFFFFFFFFFFFFFFFFFF AND SWAP3 POP DUP1 PUSH1 0x3 ADD PUSH1 0x15 SWAP1 SLOAD SWAP1 PUSH2 0x100 EXP SWAP1 DIV PUSH1 0xFF AND SWAP2 POP POP SWAP2 SWAP4 SWAP6 POP SWAP2 SWAP4 SWAP6 JUMP JUMPDEST PUSH1 0x1 SLOAD DUP2 JUMP JUMPDEST PUSH1 0x1 PUSH1 0x0 DUP2 SLOAD DUP1 SWAP3 SWAP2 SWAP1 PUSH2 0x4DB SWAP1 PUSH2 0x1845 JUMP JUMPDEST SWAP2 SWAP1 POP SSTORE POP JUMP JUMPDEST PUSH1 0x0 DUP1 PUSH1 0x0 DUP6 DUP2 MSTORE PUSH1 0x20 ADD SWAP1 DUP2 MSTORE PUSH1 0x20 ADD PUSH1 0x0 KECCAK256 SWAP1 POP PUSH1 0x1 ISZERO ISZERO DUP2 PUSH1 0x3 ADD PUSH1 0x0 SWAP1 SLOAD SWAP1 PUSH2 0x100 EXP SWAP1 DIV PUSH1 0xFF AND ISZERO ISZERO EQ PUSH2 0x550 JUMPI PUSH1 0x40 MLOAD PUSH32 0x8C379A000000000000000000000000000000000000000000000000000000000 DUP2 MSTORE PUSH1 0x4 ADD PUSH2 0x547 SWAP1 PUSH2 0x18EA JUMP JUMPDEST PUSH1 0x40 MLOAD DUP1 SWAP2 SUB SWAP1 REVERT JUMPDEST PUSH1 0x0 PUSH20 0xFFFFFFFFFFFFFFFFFFFFFFFFFFFFFFFFFFFFFFFF AND DUP2 PUSH1 0x2 ADD PUSH1 0x0 DUP6 DUP2 MSTORE PUSH1 0x20 ADD SWAP1 DUP2 MSTORE PUSH1 0x20 ADD PUSH1 0x0 KECCAK256 PUSH1 0x0 DUP5 DUP2 MSTORE PUSH1 0x20 ADD SWAP1 DUP2 MSTORE PUSH1 0x20 ADD PUSH1 0x0 KECCAK256 PUSH1 0x0 SWAP1 SLOAD SWAP1 PUSH2 0x100 EXP SWAP1 DIV PUSH20 0xFFFFFFFFFFFFFFFFFFFFFFFFFFFFFFFFFFFFFFFF AND PUSH20 0xFFFFFFFFFFFFFFFFFFFFFFFFFFFFFFFFFFFFFFFF AND EQ PUSH2 0x605 JUMPI PUSH1 0x40 MLOAD PUSH32 0x8C379A000000000000000000000000000000000000000000000000000000000 DUP2 MSTORE PUSH1 0x4 ADD PUSH2 0x5FC SWAP1 PUSH2 0x1956 JUMP JUMPDEST PUSH1 0x40 MLOAD DUP1 SWAP2 SUB SWAP1 REVERT JUMPDEST DUP1 PUSH1 0x1 ADD PUSH1 0x0 SWAP1 SLOAD SWAP1 PUSH2 0x100 EXP SWAP1 DIV PUSH20 0xFFFFFFFFFFFFFFFFFFFFFFFFFFFFFFFFFFFFFFFF AND PUSH20 0xFFFFFFFFFFFFFFFFFFFFFFFFFFFFFFFFFFFFFFFF AND CALLER PUSH20 0xFFFFFFFFFFFFFFFFFFFFFFFFFFFFFFFFFFFFFFFF AND EQ PUSH2 0x697 JUMPI PUSH1 0x40 MLOAD PUSH32 0x8C379A000000000000000000000000000000000000000000000000000000000 DUP2 MSTORE PUSH1 0x4 ADD PUSH2 0x68E SWAP1 PUSH2 0x19C2 JUMP JUMPDEST PUSH1 0x40 MLOAD DUP1 SWAP2 SUB SWAP1 REVERT JUMPDEST CALLER DUP2 PUSH1 0x2 ADD PUSH1 0x0 DUP6 DUP2 MSTORE PUSH1 0x20 ADD SWAP1 DUP2 MSTORE PUSH1 0x20 ADD PUSH1 0x0 KECCAK256 PUSH1 0x0 DUP5 DUP2 MSTORE PUSH1 0x20 ADD SWAP1 DUP2 MSTORE PUSH1 0x20 ADD PUSH1 0x0 KECCAK256 PUSH1 0x0 PUSH2 0x100 EXP DUP2 SLOAD DUP2 PUSH20 0xFFFFFFFFFFFFFFFFFFFFFFFFFFFFFFFFFFFFFFFF MUL NOT AND SWAP1 DUP4 PUSH20 0xFFFFFFFFFFFFFFFFFFFFFFFFFFFFFFFFFFFFFFFF AND MUL OR SWAP1 SSTORE POP PUSH2 0x709 DUP2 PUSH1 0x2 ADD CALLER PUSH2 0xBBB JUMP JUMPDEST ISZERO PUSH2 0x795 JUMPI PUSH1 0x0 DUP1 PUSH1 0x0 DUP7 DUP2 MSTORE PUSH1 0x20 ADD SWAP1 DUP2 MSTORE PUSH1 0x20 ADD PUSH1 0x0 KECCAK256 PUSH1 0x3 ADD PUSH1 0x0 PUSH2 0x100 EXP DUP2 SLOAD DUP2 PUSH1 0xFF MUL NOT AND SWAP1 DUP4 ISZERO ISZERO MUL OR SWAP1 SSTORE POP CALLER PUSH1 0x0 DUP1 DUP7 DUP2 MSTORE PUSH1 0x20 ADD SWAP1 DUP2 MSTORE PUSH1 0x20 ADD PUSH1 0x0 KECCAK256 PUSH1 0x3 ADD PUSH1 0x1 PUSH2 0x100 EXP DUP2 SLOAD DUP2 PUSH20 0xFFFFFFFFFFFFFFFFFFFFFFFFFFFFFFFFFFFFFFFF MUL NOT AND SWAP1 DUP4 PUSH20 0xFFFFFFFFFFFFFFFFFFFFFFFFFFFFFFFFFFFFFFFF AND MUL OR SWAP1 SSTORE POP PUSH2 0x8DD JUMP JUMPDEST PUSH2 0x7A1 DUP2 PUSH1 0x2 ADD PUSH2 0x11E9 JUMP JUMPDEST ISZERO PUSH2 0x807 JUMPI PUSH1 0x0 DUP1 PUSH1 0x0 DUP7 DUP2 MSTORE PUSH1 0x20 ADD SWAP1 DUP2 MSTORE PUSH1 0x20 ADD PUSH1 0x0 KECCAK256 PUSH1 0x3 ADD PUSH1 0x0 PUSH2 0x100 EXP DUP2 SLOAD DUP2 PUSH1 0xFF MUL NOT AND SWAP1 DUP4 ISZERO ISZERO MUL OR SWAP1 SSTORE POP PUSH1 0x1 PUSH1 0x0 DUP1 DUP7 DUP2 MSTORE PUSH1 0x20 ADD SWAP1 DUP2 MSTORE PUSH1 0x20 ADD PUSH1 0x0 KECCAK256 PUSH1 0x3 ADD PUSH1 0x15 PUSH2 0x100 EXP DUP2 SLOAD DUP2 PUSH1 0xFF MUL NOT AND SWAP1 DUP4 ISZERO ISZERO MUL OR SWAP1 SSTORE POP PUSH2 0x8DC JUMP JUMPDEST PUSH2 0x899 DUP2 PUSH1 0x0 ADD DUP1 SLOAD DUP1 PUSH1 0x20 MUL PUSH1 0x20 ADD PUSH1 0x40 MLOAD SWAP1 DUP2 ADD PUSH1 0x40 MSTORE DUP1 SWAP3 SWAP2 SWAP1 DUP2 DUP2 MSTORE PUSH1 0x20 ADD DUP3 DUP1 SLOAD DUP1 ISZERO PUSH2 0x88E JUMPI PUSH1 0x20 MUL DUP3 ADD SWAP2 SWAP1 PUSH1 0x0 MSTORE PUSH1 0x20 PUSH1 0x0 KECCAK256 SWAP1 JUMPDEST DUP2 PUSH1 0x0 SWAP1 SLOAD SWAP1 PUSH2 0x100 EXP SWAP1 DIV PUSH20 0xFFFFFFFFFFFFFFFFFFFFFFFFFFFFFFFFFFFFFFFF AND PUSH20 0xFFFFFFFFFFFFFFFFFFFFFFFFFFFFFFFFFFFFFFFF AND DUP2 MSTORE PUSH1 0x20 ADD SWAP1 PUSH1 0x1 ADD SWAP1 DUP1 DUP4 GT PUSH2 0x844 JUMPI JUMPDEST POP POP POP POP POP CALLER PUSH2 0x12BA JUMP JUMPDEST DUP2 PUSH1 0x1 ADD PUSH1 0x0 PUSH2 0x100 EXP DUP2 SLOAD DUP2 PUSH20 0xFFFFFFFFFFFFFFFFFFFFFFFFFFFFFFFFFFFFFFFF MUL NOT AND SWAP1 DUP4 PUSH20 0xFFFFFFFFFFFFFFFFFFFFFFFFFFFFFFFFFFFFFFFF AND MUL OR SWAP1 SSTORE POP JUMPDEST JUMPDEST POP POP POP POP JUMP JUMPDEST PUSH1 0x2 PUSH1 0x0 DUP1 DUP4 DUP2 MSTORE PUSH1 0x20 ADD SWAP1 DUP2 MSTORE PUSH1 0x20 ADD PUSH1 0x0 KECCAK256 PUSH1 0x0 ADD DUP1 SLOAD SWAP1 POP EQ PUSH2 0x93E JUMPI PUSH1 0x40 MLOAD PUSH32 0x8C379A000000000000000000000000000000000000000000000000000000000 DUP2 MSTORE PUSH1 0x4 ADD PUSH2 0x935 SWAP1 PUSH2 0x1A54 JUMP JUMPDEST PUSH1 0x40 MLOAD DUP1 SWAP2 SUB SWAP1 REVERT JUMPDEST PUSH1 0x0 ISZERO ISZERO PUSH1 0x0 DUP1 DUP4 DUP2 MSTORE PUSH1 0x20 ADD SWAP1 DUP2 MSTORE PUSH1 0x20 ADD PUSH1 0x0 KECCAK256 PUSH1 0x3 ADD PUSH1 0x0 SWAP1 SLOAD SWAP1 PUSH2 0x100 EXP SWAP1 DIV PUSH1 0xFF AND ISZERO ISZERO EQ PUSH2 0x9A7 JUMPI PUSH1 0x40 MLOAD PUSH32 0x8C379A000000000000000000000000000000000000000000000000000000000 DUP2 MSTORE PUSH1 0x4 ADD PUSH2 0x99E SWAP1 PUSH2 0x1AC0 JUMP JUMPDEST PUSH1 0x40 MLOAD DUP1 SWAP2 SUB SWAP1 REVERT JUMPDEST PUSH1 0x1 PUSH1 0x0 DUP1 DUP4 DUP2 MSTORE PUSH1 0x20 ADD SWAP1 DUP2 MSTORE PUSH1 0x20 ADD PUSH1 0x0 KECCAK256 PUSH1 0x3 ADD PUSH1 0x0 PUSH2 0x100 EXP DUP2 SLOAD DUP2 PUSH1 0xFF MUL NOT AND SWAP1 DUP4 ISZERO ISZERO MUL OR SWAP1 SSTORE POP PUSH1 0x0 DUP1 DUP3 DUP2 MSTORE PUSH1 0x20 ADD SWAP1 DUP2 MSTORE PUSH1 0x20 ADD PUSH1 0x0 KECCAK256 PUSH1 0x0 ADD PUSH1 0x0 DUP2 SLOAD DUP2 LT PUSH2 0x9FD JUMPI PUSH2 0x9FC PUSH2 0x17E7 JUMP JUMPDEST JUMPDEST SWAP1 PUSH1 0x0 MSTORE PUSH1 0x20 PUSH1 0x0 KECCAK256 ADD PUSH1 0x0 SWAP1 SLOAD SWAP1 PUSH2 0x100 EXP SWAP1 DIV PUSH20 0xFFFFFFFFFFFFFFFFFFFFFFFFFFFFFFFFFFFFFFFF AND PUSH1 0x0 DUP1 DUP4 DUP2 MSTORE PUSH1 0x20 ADD SWAP1 DUP2 MSTORE PUSH1 0x20 ADD PUSH1 0x0 KECCAK256 PUSH1 0x1 ADD PUSH1 0x0 PUSH2 0x100 EXP DUP2 SLOAD DUP2 PUSH20 0xFFFFFFFFFFFFFFFFFFFFFFFFFFFFFFFFFFFFFFFF MUL NOT AND SWAP1 DUP4 PUSH20 0xFFFFFFFFFFFFFFFFFFFFFFFFFFFFFFFFFFFFFFFF AND MUL OR SWAP1 SSTORE POP POP JUMP JUMPDEST PUSH1 0x2 PUSH1 0x0 DUP1 DUP4 DUP2 MSTORE PUSH1 0x20 ADD SWAP1 DUP2 MSTORE PUSH1 0x20 ADD PUSH1 0x0 KECCAK256 PUSH1 0x0 ADD DUP1 SLOAD SWAP1 POP LT PUSH2 0xAD9 JUMPI PUSH1 0x40 MLOAD PUSH32 0x8C379A000000000000000000000000000000000000000000000000000000000 DUP2 MSTORE PUSH1 0x4 ADD PUSH2 0xAD0 SWAP1 PUSH2 0x1B2C JUMP JUMPDEST PUSH1 0x40 MLOAD DUP1 SWAP2 SUB SWAP1 REVERT JUMPDEST PUSH1 0x0 ISZERO ISZERO PUSH1 0x0 DUP1 DUP4 DUP2 MSTORE PUSH1 0x20 ADD SWAP1 DUP2 MSTORE PUSH1 0x20 ADD PUSH1 0x0 KECCAK256 PUSH1 0x3 ADD PUSH1 0x0 SWAP1 SLOAD SWAP1 PUSH2 0x100 EXP SWAP1 DIV PUSH1 0xFF AND ISZERO ISZERO EQ PUSH2 0xB42 JUMPI PUSH1 0x40 MLOAD PUSH32 0x8C379A000000000000000000000000000000000000000000000000000000000 DUP2 MSTORE PUSH1 0x4 ADD PUSH2 0xB39 SWAP1 PUSH2 0x1AC0 JUMP JUMPDEST PUSH1 0x40 MLOAD DUP1 SWAP2 SUB SWAP1 REVERT JUMPDEST PUSH1 0x0 DUP1 DUP3 DUP2 MSTORE PUSH1 0x20 ADD SWAP1 DUP2 MSTORE PUSH1 0x20 ADD PUSH1 0x0 KECCAK256 PUSH1 0x0 ADD CALLER SWAP1 DUP1 PUSH1 0x1 DUP2 SLOAD ADD DUP1 DUP3 SSTORE DUP1 SWAP2 POP POP PUSH1 0x1 SWAP1 SUB SWAP1 PUSH1 0x0 MSTORE PUSH1 0x20 PUSH1 0x0 KECCAK256 ADD PUSH1 0x0 SWAP1 SWAP2 SWAP1 SWAP2 SWAP1 SWAP2 PUSH2 0x100 EXP DUP2 SLOAD DUP2 PUSH20 0xFFFFFFFFFFFFFFFFFFFFFFFFFFFFFFFFFFFFFFFF MUL NOT AND SWAP1 DUP4 PUSH20 0xFFFFFFFFFFFFFFFFFFFFFFFFFFFFFFFFFFFFFFFF AND MUL OR SWAP1 SSTORE POP POP JUMP JUMPDEST PUSH1 0x0 DUP1 PUSH1 0x0 SWAP1 POP JUMPDEST PUSH1 0x3 DUP2 LT ISZERO PUSH2 0xD56 JUMPI DUP3 PUSH20 0xFFFFFFFFFFFFFFFFFFFFFFFFFFFFFFFFFFFFFFFF AND DUP5 PUSH1 0x0 DUP4 DUP2 MSTORE PUSH1 0x20 ADD SWAP1 DUP2 MSTORE PUSH1 0x20 ADD PUSH1 0x0 KECCAK256 PUSH1 0x0 DUP1 DUP2 MSTORE PUSH1 0x20 ADD SWAP1 DUP2 MSTORE PUSH1 0x20 ADD PUSH1 0x0 KECCAK256 PUSH1 0x0 SWAP1 SLOAD SWAP1 PUSH2 0x100 EXP SWAP1 DIV PUSH20 0xFFFFFFFFFFFFFFFFFFFFFFFFFFFFFFFFFFFFFFFF AND PUSH20 0xFFFFFFFFFFFFFFFFFFFFFFFFFFFFFFFFFFFFFFFF AND EQ DUP1 ISZERO PUSH2 0xCB9 JUMPI POP DUP3 PUSH20 0xFFFFFFFFFFFFFFFFFFFFFFFFFFFFFFFFFFFFFFFF AND DUP5 PUSH1 0x0 DUP4 DUP2 MSTORE PUSH1 0x20 ADD SWAP1 DUP2 MSTORE PUSH1 0x20 ADD PUSH1 0x0 KECCAK256 PUSH1 0x0 PUSH1 0x1 DUP2 MSTORE PUSH1 0x20 ADD SWAP1 DUP2 MSTORE PUSH1 0x20 ADD PUSH1 0x0 KECCAK256 PUSH1 0x0 SWAP1 SLOAD SWAP1 PUSH2 0x100 EXP SWAP1 DIV PUSH20 0xFFFFFFFFFFFFFFFFFFFFFFFFFFFFFFFFFFFFFFFF AND PUSH20 0xFFFFFFFFFFFFFFFFFFFFFFFFFFFFFFFFFFFFFFFF AND EQ JUMPDEST DUP1 ISZERO PUSH2 0xD34 JUMPI POP DUP3 PUSH20 0xFFFFFFFFFFFFFFFFFFFFFFFFFFFFFFFFFFFFFFFF AND DUP5 PUSH1 0x0 DUP4 DUP2 MSTORE PUSH1 0x20 ADD SWAP1 DUP2 MSTORE PUSH1 0x20 ADD PUSH1 0x0 KECCAK256 PUSH1 0x0 PUSH1 0x2 DUP2 MSTORE PUSH1 0x20 ADD SWAP1 DUP2 MSTORE PUSH1 0x20 ADD PUSH1 0x0 KECCAK256 PUSH1 0x0 SWAP1 SLOAD SWAP1 PUSH2 0x100 EXP SWAP1 DIV PUSH20 0xFFFFFFFFFFFFFFFFFFFFFFFFFFFFFFFFFFFFFFFF AND PUSH20 0xFFFFFFFFFFFFFFFFFFFFFFFFFFFFFFFFFFFFFFFF AND EQ JUMPDEST ISZERO PUSH2 0xD43 JUMPI PUSH1 0x1 SWAP2 POP POP PUSH2 0x11E3 JUMP JUMPDEST DUP1 DUP1 PUSH2 0xD4E SWAP1 PUSH2 0x1845 JUMP JUMPDEST SWAP2 POP POP PUSH2 0xBC3 JUMP JUMPDEST POP PUSH1 0x0 JUMPDEST PUSH1 0x3 DUP2 LT ISZERO PUSH2 0xEED JUMPI DUP3 PUSH20 0xFFFFFFFFFFFFFFFFFFFFFFFFFFFFFFFFFFFFFFFF AND DUP5 PUSH1 0x0 DUP1 DUP2 MSTORE PUSH1 0x20 ADD SWAP1 DUP2 MSTORE PUSH1 0x20 ADD PUSH1 0x0 KECCAK256 PUSH1 0x0 DUP4 DUP2 MSTORE PUSH1 0x20 ADD SWAP1 DUP2 MSTORE PUSH1 0x20 ADD PUSH1 0x0 KECCAK256 PUSH1 0x0 SWAP1 SLOAD SWAP1 PUSH2 0x100 EXP SWAP1 DIV PUSH20 0xFFFFFFFFFFFFFFFFFFFFFFFFFFFFFFFFFFFFFFFF AND PUSH20 0xFFFFFFFFFFFFFFFFFFFFFFFFFFFFFFFFFFFFFFFF AND EQ DUP1 ISZERO PUSH2 0xE50 JUMPI POP DUP3 PUSH20 0xFFFFFFFFFFFFFFFFFFFFFFFFFFFFFFFFFFFFFFFF AND DUP5 PUSH1 0x0 PUSH1 0x1 DUP2 MSTORE PUSH1 0x20 ADD SWAP1 DUP2 MSTORE PUSH1 0x20 ADD PUSH1 0x0 KECCAK256 PUSH1 0x0 DUP4 DUP2 MSTORE PUSH1 0x20 ADD SWAP1 DUP2 MSTORE PUSH1 0x20 ADD PUSH1 0x0 KECCAK256 PUSH1 0x0 SWAP1 SLOAD SWAP1 PUSH2 0x100 EXP SWAP1 DIV PUSH20 0xFFFFFFFFFFFFFFFFFFFFFFFFFFFFFFFFFFFFFFFF AND PUSH20 0xFFFFFFFFFFFFFFFFFFFFFFFFFFFFFFFFFFFFFFFF AND EQ JUMPDEST DUP1 ISZERO PUSH2 0xECB JUMPI POP DUP3 PUSH20 0xFFFFFFFFFFFFFFFFFFFFFFFFFFFFFFFFFFFFFFFF AND DUP5 PUSH1 0x0 PUSH1 0x2 DUP2 MSTORE PUSH1 0x20 ADD SWAP1 DUP2 MSTORE PUSH1 0x20 ADD PUSH1 0x0 KECCAK256 PUSH1 0x0 DUP4 DUP2 MSTORE PUSH1 0x20 ADD SWAP1 DUP2 MSTORE PUSH1 0x20 ADD PUSH1 0x0 KECCAK256 PUSH1 0x0 SWAP1 SLOAD SWAP1 PUSH2 0x100 EXP SWAP1 DIV PUSH20 0xFFFFFFFFFFFFFFFFFFFFFFFFFFFFFFFFFFFFFFFF AND PUSH20 0xFFFFFFFFFFFFFFFFFFFFFFFFFFFFFFFFFFFFFFFF AND EQ JUMPDEST ISZERO PUSH2 0xEDA JUMPI PUSH1 0x1 SWAP2 POP POP PUSH2 0x11E3 JUMP JUMPDEST DUP1 DUP1 PUSH2 0xEE5 SWAP1 PUSH2 0x1845 JUMP JUMPDEST SWAP2 POP POP PUSH2 0xD5A JUMP JUMPDEST POP DUP2 PUSH20 0xFFFFFFFFFFFFFFFFFFFFFFFFFFFFFFFFFFFFFFFF AND DUP4 PUSH1 0x0 DUP1 DUP2 MSTORE PUSH1 0x20 ADD SWAP1 DUP2 MSTORE PUSH1 0x20 ADD PUSH1 0x0 KECCAK256 PUSH1 0x0 DUP1 DUP2 MSTORE PUSH1 0x20 ADD SWAP1 DUP2 MSTORE PUSH1 0x20 ADD PUSH1 0x0 KECCAK256 PUSH1 0x0 SWAP1 SLOAD SWAP1 PUSH2 0x100 EXP SWAP1 DIV PUSH20 0xFFFFFFFFFFFFFFFFFFFFFFFFFFFFFFFFFFFFFFFF AND PUSH20 0xFFFFFFFFFFFFFFFFFFFFFFFFFFFFFFFFFFFFFFFF AND EQ DUP1 ISZERO PUSH2 0xFDC JUMPI POP DUP2 PUSH20 0xFFFFFFFFFFFFFFFFFFFFFFFFFFFFFFFFFFFFFFFF AND DUP4 PUSH1 0x0 PUSH1 0x1 DUP2 MSTORE PUSH1 0x20 ADD SWAP1 DUP2 MSTORE PUSH1 0x20 ADD PUSH1 0x0 KECCAK256 PUSH1 0x0 PUSH1 0x1 DUP2 MSTORE PUSH1 0x20 ADD SWAP1 DUP2 MSTORE PUSH1 0x20 ADD PUSH1 0x0 KECCAK256 PUSH1 0x0 SWAP1 SLOAD SWAP1 PUSH2 0x100 EXP SWAP1 DIV PUSH20 0xFFFFFFFFFFFFFFFFFFFFFFFFFFFFFFFFFFFFFFFF AND PUSH20 0xFFFFFFFFFFFFFFFFFFFFFFFFFFFFFFFFFFFFFFFF AND EQ JUMPDEST DUP1 ISZERO PUSH2 0x1058 JUMPI POP DUP2 PUSH20 0xFFFFFFFFFFFFFFFFFFFFFFFFFFFFFFFFFFFFFFFF AND DUP4 PUSH1 0x0 PUSH1 0x2 DUP2 MSTORE PUSH1 0x20 ADD SWAP1 DUP2 MSTORE PUSH1 0x20 ADD PUSH1 0x0 KECCAK256 PUSH1 0x0 PUSH1 0x2 DUP2 MSTORE PUSH1 0x20 ADD SWAP1 DUP2 MSTORE PUSH1 0x20 ADD PUSH1 0x0 KECCAK256 PUSH1 0x0 SWAP1 SLOAD SWAP1 PUSH2 0x100 EXP SWAP1 DIV PUSH20 0xFFFFFFFFFFFFFFFFFFFFFFFFFFFFFFFFFFFFFFFF AND PUSH20 0xFFFFFFFFFFFFFFFFFFFFFFFFFFFFFFFFFFFFFFFF AND EQ JUMPDEST ISZERO PUSH2 0x1066 JUMPI PUSH1 0x1 SWAP1 POP PUSH2 0x11E3 JUMP JUMPDEST DUP2 PUSH20 0xFFFFFFFFFFFFFFFFFFFFFFFFFFFFFFFFFFFFFFFF AND DUP4 PUSH1 0x0 DUP1 DUP2 MSTORE PUSH1 0x20 ADD SWAP1 DUP2 MSTORE PUSH1 0x20 ADD PUSH1 0x0 KECCAK256 PUSH1 0x0 PUSH1 0x2 DUP2 MSTORE PUSH1 0x20 ADD SWAP1 DUP2 MSTORE PUSH1 0x20 ADD PUSH1 0x0 KECCAK256 PUSH1 0x0 SWAP1 SLOAD SWAP1 PUSH2 0x100 EXP SWAP1 DIV PUSH20 0xFFFFFFFFFFFFFFFFFFFFFFFFFFFFFFFFFFFFFFFF AND PUSH20 0xFFFFFFFFFFFFFFFFFFFFFFFFFFFFFFFFFFFFFFFF AND EQ DUP1 ISZERO PUSH2 0x1155 JUMPI POP DUP2 PUSH20 0xFFFFFFFFFFFFFFFFFFFFFFFFFFFFFFFFFFFFFFFF AND DUP4 PUSH1 0x0 PUSH1 0x1 DUP2 MSTORE PUSH1 0x20 ADD SWAP1 DUP2 MSTORE PUSH1 0x20 ADD PUSH1 0x0 KECCAK256 PUSH1 0x0 PUSH1 0x1 DUP2 MSTORE PUSH1 0x20 ADD SWAP1 DUP2 MSTORE PUSH1 0x20 ADD PUSH1 0x0 KECCAK256 PUSH1 0x0 SWAP1 SLOAD SWAP1 PUSH2 0x100 EXP SWAP1 DIV PUSH20 0xFFFFFFFFFFFFFFFFFFFFFFFFFFFFFFFFFFFFFFFF AND PUSH20 0xFFFFFFFFFFFFFFFFFFFFFFFFFFFFFFFFFFFFFFFF AND EQ JUMPDEST DUP1 ISZERO PUSH2 0x11D0 JUMPI POP DUP2 PUSH20 0xFFFFFFFFFFFFFFFFFFFFFFFFFFFFFFFFFFFFFFFF AND DUP4 PUSH1 0x0 PUSH1 0x2 DUP2 MSTORE PUSH1 0x20 ADD SWAP1 DUP2 MSTORE PUSH1 0x20 ADD PUSH1 0x0 KECCAK256 PUSH1 0x0 DUP1 DUP2 MSTORE PUSH1 0x20 ADD SWAP1 DUP2 MSTORE PUSH1 0x20 ADD PUSH1 0x0 KECCAK256 PUSH1 0x0 SWAP1 SLOAD SWAP1 PUSH2 0x100 EXP SWAP1 DIV PUSH20 0xFFFFFFFFFFFFFFFFFFFFFFFFFFFFFFFFFFFFFFFF AND PUSH20 0xFFFFFFFFFFFFFFFFFFFFFFFFFFFFFFFFFFFFFFFF AND EQ JUMPDEST ISZERO PUSH2 0x11DE JUMPI PUSH1 0x1 SWAP1 POP PUSH2 0x11E3 JUMP JUMPDEST PUSH1 0x0 SWAP1 POP JUMPDEST SWAP3 SWAP2 POP POP JUMP JUMPDEST PUSH1 0x0 DUP1 PUSH1 0x0 SWAP1 POP JUMPDEST PUSH1 0x3 DUP2 LT ISZERO PUSH2 0x12AF JUMPI PUSH1 0x0 JUMPDEST PUSH1 0x3 DUP2 LT ISZERO PUSH2 0x129B JUMPI PUSH1 0x0 PUSH20 0xFFFFFFFFFFFFFFFFFFFFFFFFFFFFFFFFFFFFFFFF AND DUP5 PUSH1 0x0 DUP5 DUP2 MSTORE PUSH1 0x20 ADD SWAP1 DUP2 MSTORE PUSH1 0x20 ADD PUSH1 0x0 KECCAK256 PUSH1 0x0 DUP4 DUP2 MSTORE PUSH1 0x20 ADD SWAP1 DUP2 MSTORE PUSH1 0x20 ADD PUSH1 0x0 KECCAK256 PUSH1 0x0 SWAP1 SLOAD SWAP1 PUSH2 0x100 EXP SWAP1 DIV PUSH20 0xFFFFFFFFFFFFFFFFFFFFFFFFFFFFFFFFFFFFFFFF AND PUSH20 0xFFFFFFFFFFFFFFFFFFFFFFFFFFFFFFFFFFFFFFFF AND SUB PUSH2 0x1288 JUMPI PUSH1 0x0 SWAP3 POP POP POP PUSH2 0x12B5 JUMP JUMPDEST DUP1 DUP1 PUSH2 0x1293 SWAP1 PUSH2 0x1845 JUMP JUMPDEST SWAP2 POP POP PUSH2 0x11FD JUMP JUMPDEST POP DUP1 DUP1 PUSH2 0x12A7 SWAP1 PUSH2 0x1845 JUMP JUMPDEST SWAP2 POP POP PUSH2 0x11F1 JUMP JUMPDEST POP PUSH1 0x1 SWAP1 POP JUMPDEST SWAP2 SWAP1 POP JUMP JUMPDEST PUSH1 0x0 DUP1 PUSH1 0x0 SWAP1 POP JUMPDEST DUP4 MLOAD DUP2 LT ISZERO PUSH2 0x1392 JUMPI DUP3 PUSH20 0xFFFFFFFFFFFFFFFFFFFFFFFFFFFFFFFFFFFFFFFF AND DUP5 DUP3 DUP2 MLOAD DUP2 LT PUSH2 0x12F5 JUMPI PUSH2 0x12F4 PUSH2 0x17E7 JUMP JUMPDEST JUMPDEST PUSH1 0x20 MUL PUSH1 0x20 ADD ADD MLOAD PUSH20 0xFFFFFFFFFFFFFFFFFFFFFFFFFFFFFFFFFFFFFFFF AND SUB PUSH2 0x137F JUMPI PUSH1 0x1 DUP5 MLOAD PUSH2 0x1326 SWAP2 SWAP1 PUSH2 0x1B4C JUMP JUMPDEST DUP2 SUB PUSH2 0x1350 JUMPI DUP4 PUSH1 0x0 DUP2 MLOAD DUP2 LT PUSH2 0x1340 JUMPI PUSH2 0x133F PUSH2 0x17E7 JUMP JUMPDEST JUMPDEST PUSH1 0x20 MUL PUSH1 0x20 ADD ADD MLOAD SWAP2 POP POP PUSH2 0x13CE JUMP JUMPDEST DUP4 PUSH1 0x1 DUP3 PUSH2 0x135E SWAP2 SWAP1 PUSH2 0x1B80 JUMP JUMPDEST DUP2 MLOAD DUP2 LT PUSH2 0x136F JUMPI PUSH2 0x136E PUSH2 0x17E7 JUMP JUMPDEST JUMPDEST PUSH1 0x20 MUL PUSH1 0x20 ADD ADD MLOAD SWAP2 POP POP PUSH2 0x13CE JUMP JUMPDEST DUP1 DUP1 PUSH2 0x138A SWAP1 PUSH2 0x1845 JUMP JUMPDEST SWAP2 POP POP PUSH2 0x12C2 JUMP JUMPDEST POP PUSH1 0x40 MLOAD PUSH32 0x8C379A000000000000000000000000000000000000000000000000000000000 DUP2 MSTORE PUSH1 0x4 ADD PUSH2 0x13C5 SWAP1 PUSH2 0x1C00 JUMP JUMPDEST PUSH1 0x40 MLOAD DUP1 SWAP2 SUB SWAP1 REVERT JUMPDEST SWAP3 SWAP2 POP POP JUMP JUMPDEST PUSH1 0x0 DUP1 REVERT JUMPDEST PUSH1 0x0 DUP2 SWAP1 POP SWAP2 SWAP1 POP JUMP JUMPDEST PUSH2 0x13EC DUP2 PUSH2 0x13D9 JUMP JUMPDEST DUP2 EQ PUSH2 0x13F7 JUMPI PUSH1 0x0 DUP1 REVERT JUMPDEST POP JUMP JUMPDEST PUSH1 0x0 DUP2 CALLDATALOAD SWAP1 POP PUSH2 0x1409 DUP2 PUSH2 0x13E3 JUMP JUMPDEST SWAP3 SWAP2 POP POP JUMP JUMPDEST PUSH1 0x0 PUSH1 0x20 DUP3 DUP5 SUB SLT ISZERO PUSH2 0x1425 JUMPI PUSH2 0x1424 PUSH2 0x13D4 JUMP JUMPDEST JUMPDEST PUSH1 0x0 PUSH2 0x1433 DUP5 DUP3 DUP6 ADD PUSH2 0x13FA JUMP JUMPDEST SWAP2 POP POP SWAP3 SWAP2 POP POP JUMP JUMPDEST PUSH1 0x0 PUSH20 0xFFFFFFFFFFFFFFFFFFFFFFFFFFFFFFFFFFFFFFFF DUP3 AND SWAP1 POP SWAP2 SWAP1 POP JUMP JUMPDEST PUSH1 0x0 PUSH2 0x1467 DUP3 PUSH2 0x143C JUMP JUMPDEST SWAP1 POP SWAP2 SWAP1 POP JUMP JUMPDEST PUSH2 0x1477 DUP2 PUSH2 0x145C JUMP JUMPDEST DUP3 MSTORE POP POP JUMP JUMPDEST PUSH1 0x0 DUP2 ISZERO ISZERO SWAP1 POP SWAP2 SWAP1 POP JUMP JUMPDEST PUSH2 0x1492 DUP2 PUSH2 0x147D JUMP JUMPDEST DUP3 MSTORE POP POP JUMP JUMPDEST PUSH1 0x0 PUSH1 0x80 DUP3 ADD SWAP1 POP PUSH2 0x14AD PUSH1 0x0 DUP4 ADD DUP8 PUSH2 0x146E JUMP JUMPDEST PUSH2 0x14BA PUSH1 0x20 DUP4 ADD DUP7 PUSH2 0x1489 JUMP JUMPDEST PUSH2 0x14C7 PUSH1 0x40 DUP4 ADD DUP6 PUSH2 0x146E JUMP JUMPDEST PUSH2 0x14D4 PUSH1 0x60 DUP4 ADD DUP5 PUSH2 0x1489 JUMP JUMPDEST SWAP6 SWAP5 POP POP POP POP POP JUMP JUMPDEST PUSH1 0x0 DUP2 MLOAD SWAP1 POP SWAP2 SWAP1 POP JUMP JUMPDEST PUSH1 0x0 DUP3 DUP3 MSTORE PUSH1 0x20 DUP3 ADD SWAP1 POP SWAP3 SWAP2 POP POP JUMP JUMPDEST PUSH1 0x0 DUP2 SWAP1 POP PUSH1 0x20 DUP3 ADD SWAP1 POP SWAP2 SWAP1 POP JUMP JUMPDEST PUSH2 0x1512 DUP2 PUSH2 0x145C JUMP JUMPDEST DUP3 MSTORE POP POP JUMP JUMPDEST PUSH1 0x0 PUSH2 0x1524 DUP4 DUP4 PUSH2 0x1509 JUMP JUMPDEST PUSH1 0x20 DUP4 ADD SWAP1 POP SWAP3 SWAP2 POP POP JUMP JUMPDEST PUSH1 0x0 PUSH1 0x20 DUP3 ADD SWAP1 POP SWAP2 SWAP1 POP JUMP JUMPDEST PUSH1 0x0 PUSH2 0x1548 DUP3 PUSH2 0x14DD JUMP JUMPDEST PUSH2 0x1552 DUP2 DUP6 PUSH2 0x14E8 JUMP JUMPDEST SWAP4 POP PUSH2 0x155D DUP4 PUSH2 0x14F9 JUMP JUMPDEST DUP1 PUSH1 0x0 JUMPDEST DUP4 DUP2 LT ISZERO PUSH2 0x158E JUMPI DUP2 MLOAD PUSH2 0x1575 DUP9 DUP3 PUSH2 0x1518 JUMP JUMPDEST SWAP8 POP PUSH2 0x1580 DUP4 PUSH2 0x1530 JUMP JUMPDEST SWAP3 POP POP PUSH1 0x1 DUP2 ADD SWAP1 POP PUSH2 0x1561 JUMP JUMPDEST POP DUP6 SWAP4 POP POP POP POP SWAP3 SWAP2 POP POP JUMP JUMPDEST PUSH1 0x0 DUP2 MLOAD SWAP1 POP SWAP2 SWAP1 POP JUMP JUMPDEST PUSH1 0x0 DUP3 DUP3 MSTORE PUSH1 0x20 DUP3 ADD SWAP1 POP SWAP3 SWAP2 POP POP JUMP JUMPDEST PUSH1 0x0 DUP2 SWAP1 POP PUSH1 0x20 DUP3 ADD SWAP1 POP SWAP2 SWAP1 POP JUMP JUMPDEST PUSH1 0x0 DUP3 DUP3 MSTORE PUSH1 0x20 DUP3 ADD SWAP1 POP SWAP3 SWAP2 POP POP JUMP JUMPDEST PUSH1 0x0 PUSH2 0x15E3 DUP3 PUSH2 0x14DD JUMP JUMPDEST PUSH2 0x15ED DUP2 DUP6 PUSH2 0x15C7 JUMP JUMPDEST SWAP4 POP PUSH2 0x15F8 DUP4 PUSH2 0x14F9 JUMP JUMPDEST DUP1 PUSH1 0x0 JUMPDEST DUP4 DUP2 LT ISZERO PUSH2 0x1629 JUMPI DUP2 MLOAD PUSH2 0x1610 DUP9 DUP3 PUSH2 0x1518 JUMP JUMPDEST SWAP8 POP PUSH2 0x161B DUP4 PUSH2 0x1530 JUMP JUMPDEST SWAP3 POP POP PUSH1 0x1 DUP2 ADD SWAP1 POP PUSH2 0x15FC JUMP JUMPDEST POP DUP6 SWAP4 POP POP POP POP SWAP3 SWAP2 POP POP JUMP JUMPDEST PUSH1 0x0 PUSH2 0x1642 DUP4 DUP4 PUSH2 0x15D8 JUMP JUMPDEST SWAP1 POP SWAP3 SWAP2 POP POP JUMP JUMPDEST PUSH1 0x0 PUSH1 0x20 DUP3 ADD SWAP1 POP SWAP2 SWAP1 POP JUMP JUMPDEST PUSH1 0x0 PUSH2 0x1662 DUP3 PUSH2 0x159B JUMP JUMPDEST PUSH2 0x166C DUP2 DUP6 PUSH2 0x15A6 JUMP JUMPDEST SWAP4 POP DUP4 PUSH1 0x20 DUP3 MUL DUP6 ADD PUSH2 0x167E DUP6 PUSH2 0x15B7 JUMP JUMPDEST DUP1 PUSH1 0x0 JUMPDEST DUP6 DUP2 LT ISZERO PUSH2 0x16BA JUMPI DUP5 DUP5 SUB DUP10 MSTORE DUP2 MLOAD PUSH2 0x169B DUP6 DUP3 PUSH2 0x1636 JUMP JUMPDEST SWAP5 POP PUSH2 0x16A6 DUP4 PUSH2 0x164A JUMP JUMPDEST SWAP3 POP PUSH1 0x20 DUP11 ADD SWAP10 POP POP PUSH1 0x1 DUP2 ADD SWAP1 POP PUSH2 0x1682 JUMP JUMPDEST POP DUP3 SWAP8 POP DUP8 SWAP6 POP POP POP POP POP POP SWAP3 SWAP2 POP POP JUMP JUMPDEST PUSH1 0x0 PUSH1 0xC0 DUP3 ADD SWAP1 POP DUP2 DUP2 SUB PUSH1 0x0 DUP4 ADD MSTORE PUSH2 0x16E6 DUP2 DUP10 PUSH2 0x153D JUMP JUMPDEST SWAP1 POP PUSH2 0x16F5 PUSH1 0x20 DUP4 ADD DUP9 PUSH2 0x146E JUMP JUMPDEST DUP2 DUP2 SUB PUSH1 0x40 DUP4 ADD MSTORE PUSH2 0x1707 DUP2 DUP8 PUSH2 0x1657 JUMP JUMPDEST SWAP1 POP PUSH2 0x1716 PUSH1 0x60 DUP4 ADD DUP7 PUSH2 0x1489 JUMP JUMPDEST PUSH2 0x1723 PUSH1 0x80 DUP4 ADD DUP6 PUSH2 0x146E JUMP JUMPDEST PUSH2 0x1730 PUSH1 0xA0 DUP4 ADD DUP5 PUSH2 0x1489 JUMP JUMPDEST SWAP8 SWAP7 POP POP POP POP POP POP POP JUMP JUMPDEST PUSH2 0x1744 DUP2 PUSH2 0x13D9 JUMP JUMPDEST DUP3 MSTORE POP POP JUMP JUMPDEST PUSH1 0x0 PUSH1 0x20 DUP3 ADD SWAP1 POP PUSH2 0x175F PUSH1 0x0 DUP4 ADD DUP5 PUSH2 0x173B JUMP JUMPDEST SWAP3 SWAP2 POP POP JUMP JUMPDEST PUSH1 0x0 DUP1 PUSH1 0x0 PUSH1 0x60 DUP5 DUP7 SUB SLT ISZERO PUSH2 0x177E JUMPI PUSH2 0x177D PUSH2 0x13D4 JUMP JUMPDEST JUMPDEST PUSH1 0x0 PUSH2 0x178C DUP7 DUP3 DUP8 ADD PUSH2 0x13FA JUMP JUMPDEST SWAP4 POP POP PUSH1 0x20 PUSH2 0x179D DUP7 DUP3 DUP8 ADD PUSH2 0x13FA JUMP JUMPDEST SWAP3 POP POP PUSH1 0x40 PUSH2 0x17AE DUP7 DUP3 DUP8 ADD PUSH2 0x13FA JUMP JUMPDEST SWAP2 POP POP SWAP3 POP SWAP3 POP SWAP3 JUMP JUMPDEST PUSH32 0x4E487B7100000000000000000000000000000000000000000000000000000000 PUSH1 0x0 MSTORE PUSH1 0x41 PUSH1 0x4 MSTORE PUSH1 0x24 PUSH1 0x0 REVERT JUMPDEST PUSH32 0x4E487B7100000000000000000000000000000000000000000000000000000000 PUSH1 0x0 MSTORE PUSH1 0x32 PUSH1 0x4 MSTORE PUSH1 0x24 PUSH1 0x0 REVERT JUMPDEST PUSH32 0x4E487B7100000000000000000000000000000000000000000000000000000000 PUSH1 0x0 MSTORE PUSH1 0x11 PUSH1 0x4 MSTORE PUSH1 0x24 PUSH1 0x0 REVERT JUMPDEST PUSH1 0x0 PUSH2 0x1850 DUP3 PUSH2 0x13D9 JUMP JUMPDEST SWAP2 POP PUSH32 0xFFFFFFFFFFFFFFFFFFFFFFFFFFFFFFFFFFFFFFFFFFFFFFFFFFFFFFFFFFFFFFFF DUP3 SUB PUSH2 0x1882 JUMPI PUSH2 0x1881 PUSH2 0x1816 JUMP JUMPDEST JUMPDEST PUSH1 0x1 DUP3 ADD SWAP1 POP SWAP2 SWAP1 POP JUMP JUMPDEST PUSH1 0x0 DUP3 DUP3 MSTORE PUSH1 0x20 DUP3 ADD SWAP1 POP SWAP3 SWAP2 POP POP JUMP JUMPDEST PUSH32 0x47616D6520686173206E6F742073746172746564207965742E00000000000000 PUSH1 0x0 DUP3 ADD MSTORE POP JUMP JUMPDEST PUSH1 0x0 PUSH2 0x18D4 PUSH1 0x19 DUP4 PUSH2 0x188D JUMP JUMPDEST SWAP2 POP PUSH2 0x18DF DUP3 PUSH2 0x189E JUMP JUMPDEST PUSH1 0x20 DUP3 ADD SWAP1 POP SWAP2 SWAP1 POP JUMP JUMPDEST PUSH1 0x0 PUSH1 0x20 DUP3 ADD SWAP1 POP DUP2 DUP2 SUB PUSH1 0x0 DUP4 ADD MSTORE PUSH2 0x1903 DUP2 PUSH2 0x18C7 JUMP JUMPDEST SWAP1 POP SWAP2 SWAP1 POP JUMP JUMPDEST PUSH32 0x43656C6C20697320616C7265616479206F636375706965642E00000000000000 PUSH1 0x0 DUP3 ADD MSTORE POP JUMP JUMPDEST PUSH1 0x0 PUSH2 0x1940 PUSH1 0x19 DUP4 PUSH2 0x188D JUMP JUMPDEST SWAP2 POP PUSH2 0x194B DUP3 PUSH2 0x190A JUMP JUMPDEST PUSH1 0x20 DUP3 ADD SWAP1 POP SWAP2 SWAP1 POP JUMP JUMPDEST PUSH1 0x0 PUSH1 0x20 DUP3 ADD SWAP1 POP DUP2 DUP2 SUB PUSH1 0x0 DUP4 ADD MSTORE PUSH2 0x196F DUP2 PUSH2 0x1933 JUMP JUMPDEST SWAP1 POP SWAP2 SWAP1 POP JUMP JUMPDEST PUSH32 0x4E6F7420796F7572207475726E2E000000000000000000000000000000000000 PUSH1 0x0 DUP3 ADD MSTORE POP JUMP JUMPDEST PUSH1 0x0 PUSH2 0x19AC PUSH1 0xE DUP4 PUSH2 0x188D JUMP JUMPDEST SWAP2 POP PUSH2 0x19B7 DUP3 PUSH2 0x1976 JUMP JUMPDEST PUSH1 0x20 DUP3 ADD SWAP1 POP SWAP2 SWAP1 POP JUMP JUMPDEST PUSH1 0x0 PUSH1 0x20 DUP3 ADD SWAP1 POP DUP2 DUP2 SUB PUSH1 0x0 DUP4 ADD MSTORE PUSH2 0x19DB DUP2 PUSH2 0x199F JUMP JUMPDEST SWAP1 POP SWAP2 SWAP1 POP JUMP JUMPDEST PUSH32 0x4E656564203220706C617965727320746F207374617274207468652067616D65 PUSH1 0x0 DUP3 ADD MSTORE PUSH32 0x2E00000000000000000000000000000000000000000000000000000000000000 PUSH1 0x20 DUP3 ADD MSTORE POP JUMP JUMPDEST PUSH1 0x0 PUSH2 0x1A3E PUSH1 0x21 DUP4 PUSH2 0x188D JUMP JUMPDEST SWAP2 POP PUSH2 0x1A49 DUP3 PUSH2 0x19E2 JUMP JUMPDEST PUSH1 0x40 DUP3 ADD SWAP1 POP SWAP2 SWAP1 POP JUMP JUMPDEST PUSH1 0x0 PUSH1 0x20 DUP3 ADD SWAP1 POP DUP2 DUP2 SUB PUSH1 0x0 DUP4 ADD MSTORE PUSH2 0x1A6D DUP2 PUSH2 0x1A31 JUMP JUMPDEST SWAP1 POP SWAP2 SWAP1 POP JUMP JUMPDEST PUSH32 0x47616D652068617320616C726561647920737461727465642E00000000000000 PUSH1 0x0 DUP3 ADD MSTORE POP JUMP JUMPDEST PUSH1 0x0 PUSH2 0x1AAA PUSH1 0x19 DUP4 PUSH2 0x188D JUMP JUMPDEST SWAP2 POP PUSH2 0x1AB5 DUP3 PUSH2 0x1A74 JUMP JUMPDEST PUSH1 0x20 DUP3 ADD SWAP1 POP SWAP2 SWAP1 POP JUMP JUMPDEST PUSH1 0x0 PUSH1 0x20 DUP3 ADD SWAP1 POP DUP2 DUP2 SUB PUSH1 0x0 DUP4 ADD MSTORE PUSH2 0x1AD9 DUP2 PUSH2 0x1A9D JUMP JUMPDEST SWAP1 POP SWAP2 SWAP1 POP JUMP JUMPDEST PUSH32 0x47616D6520697320616C72656164792066756C6C2E0000000000000000000000 PUSH1 0x0 DUP3 ADD MSTORE POP JUMP JUMPDEST PUSH1 0x0 PUSH2 0x1B16 PUSH1 0x15 DUP4 PUSH2 0x188D JUMP JUMPDEST SWAP2 POP PUSH2 0x1B21 DUP3 PUSH2 0x1AE0 JUMP JUMPDEST PUSH1 0x20 DUP3 ADD SWAP1 POP SWAP2 SWAP1 POP JUMP JUMPDEST PUSH1 0x0 PUSH1 0x20 DUP3 ADD SWAP1 POP DUP2 DUP2 SUB PUSH1 0x0 DUP4 ADD MSTORE PUSH2 0x1B45 DUP2 PUSH2 0x1B09 JUMP JUMPDEST SWAP1 POP SWAP2 SWAP1 POP JUMP JUMPDEST PUSH1 0x0 PUSH2 0x1B57 DUP3 PUSH2 0x13D9 JUMP JUMPDEST SWAP2 POP PUSH2 0x1B62 DUP4 PUSH2 0x13D9 JUMP JUMPDEST SWAP3 POP DUP3 DUP3 SUB SWAP1 POP DUP2 DUP2 GT ISZERO PUSH2 0x1B7A JUMPI PUSH2 0x1B79 PUSH2 0x1816 JUMP JUMPDEST JUMPDEST SWAP3 SWAP2 POP POP JUMP JUMPDEST PUSH1 0x0 PUSH2 0x1B8B DUP3 PUSH2 0x13D9 JUMP JUMPDEST SWAP2 POP PUSH2 0x1B96 DUP4 PUSH2 0x13D9 JUMP JUMPDEST SWAP3 POP DUP3 DUP3 ADD SWAP1 POP DUP1 DUP3 GT ISZERO PUSH2 0x1BAE JUMPI PUSH2 0x1BAD PUSH2 0x1816 JUMP JUMPDEST JUMPDEST SWAP3 SWAP2 POP POP JUMP JUMPDEST PUSH32 0x506C61796572206E6F7420666F756E642E000000000000000000000000000000 PUSH1 0x0 DUP3 ADD MSTORE POP JUMP JUMPDEST PUSH1 0x0 PUSH2 0x1BEA PUSH1 0x11 DUP4 PUSH2 0x188D JUMP JUMPDEST SWAP2 POP PUSH2 0x1BF5 DUP3 PUSH2 0x1BB4 JUMP JUMPDEST PUSH1 0x20 DUP3 ADD SWAP1 POP SWAP2 SWAP1 POP JUMP JUMPDEST PUSH1 0x0 PUSH1 0x20 DUP3 ADD SWAP1 POP DUP2 DUP2 SUB PUSH1 0x0 DUP4 ADD MSTORE PUSH2 0x1C19 DUP2 PUSH2 0x1BDD JUMP JUMPDEST SWAP1 POP SWAP2 SWAP1 POP JUMP INVALID LOG2 PUSH5 0x6970667358 0x22 SLT KECCAK256 0xC9 0xEA DELEGATECALL 0xC1 STATICCALL PUSH24 0xD5BBF975DAF19D71387EE6D80BEA1D65F258D4FDA45BB9F1 0x5D 0xD1 PUSH5 0x736F6C6343 STOP ADDMOD SLT STOP CALLER "},"methodIdentifiers":{"createGame()":"7255d729","gameCount()":"4d1975b4","games(uint256)":"117a5b90","getGameInfo(uint256)":"47e1d550","joinGame(uint256)":"efaa55a0","play(uint256,uint256,uint256)":"ab2e5a1f","startGame(uint256)":"e5ed1d59"}}}}}