{
  "_format": "hh-sol-artifact-1",
  "contractName": "TicTacToe",
  "sourceName": "contracts/TicTacToe.sol",
  "abi": [
    {
      "inputs": [],
      "stateMutability": "nonpayable",
      "type": "constructor"
    },
    {
      "inputs": [],
      "name": "createGame",
      "outputs": [],
      "stateMutability": "nonpayable",
      "type": "function"
    },
    {
      "inputs": [],
      "name": "gameCount",
      "outputs": [
        {
          "internalType": "uint256",
          "name": "",
          "type": "uint256"
        }
      ],
      "stateMutability": "view",
      "type": "function"
    },
    {
      "inputs": [
        {
          "internalType": "uint256",
          "name": "",
          "type": "uint256"
        }
      ],
      "name": "games",
      "outputs": [
        {
          "internalType": "address",
          "name": "currentPlayer",
          "type": "address"
        },
        {
          "internalType": "bool",
          "name": "isStarted",
          "type": "bool"
        },
        {
          "internalType": "address",
          "name": "winner",
          "type": "address"
        },
        {
          "internalType": "bool",
          "name": "tie",
          "type": "bool"
        }
      ],
      "stateMutability": "view",
      "type": "function"
    },
    {
      "inputs": [
        {
          "internalType": "uint256",
          "name": "_gameId",
          "type": "uint256"
        }
      ],
      "name": "getGameInfo",
      "outputs": [
        {
          "internalType": "address[]",
          "name": "players",
          "type": "address[]"
        },
        {
          "internalType": "address",
          "name": "currentPlayer",
          "type": "address"
        },
        {
          "internalType": "address[][]",
          "name": "board",
          "type": "address[][]"
        },
        {
          "internalType": "bool",
          "name": "isStarted",
          "type": "bool"
        },
        {
          "internalType": "address",
          "name": "winner",
          "type": "address"
        },
        {
          "internalType": "bool",
          "name": "tie",
          "type": "bool"
        }
      ],
      "stateMutability": "view",
      "type": "function"
    },
    {
      "inputs": [
        {
          "internalType": "uint256",
          "name": "_gameId",
          "type": "uint256"
        }
      ],
      "name": "joinGame",
      "outputs": [],
      "stateMutability": "nonpayable",
      "type": "function"
    },
    {
      "inputs": [
        {
          "internalType": "uint256",
          "name": "_gameId",
          "type": "uint256"
        },
        {
          "internalType": "uint256",
          "name": "_row",
          "type": "uint256"
        },
        {
          "internalType": "uint256",
          "name": "_col",
          "type": "uint256"
        }
      ],
      "name": "play",
      "outputs": [],
      "stateMutability": "nonpayable",
      "type": "function"
    },
    {
      "inputs": [
        {
          "internalType": "uint256",
          "name": "_gameId",
          "type": "uint256"
        }
      ],
      "name": "startGame",
      "outputs": [],
      "stateMutability": "nonpayable",
      "type": "function"
    }
  ],
  "bytecode": "0x608060405234801561001057600080fd5b506000600181905550611c56806100286000396000f3fe608060405234801561001057600080fd5b506004361061007d5760003560e01c80637255d7291161005b5780637255d72914610108578063ab2e5a1f14610112578063e5ed1d591461012e578063efaa55a01461014a5761007d565b8063117a5b901461008257806347e1d550146100b55780634d1975b4146100ea575b600080fd5b61009c6004803603810190610097919061140f565b610166565b6040516100ac9493929190611498565b60405180910390f35b6100cf60048036038101906100ca919061140f565b6101f0565b6040516100e1969594939291906116cc565b60405180910390f35b6100f26104c2565b6040516100ff919061174a565b60405180910390f35b6101106104c8565b005b61012c60048036038101906101279190611765565b6104e2565b005b6101486004803603810190610143919061140f565b6108e3565b005b610164600480360381019061015f919061140f565b610a7e565b005b60006020528060005260406000206000915090508060010160009054906101000a900473ffffffffffffffffffffffffffffffffffffffff16908060030160009054906101000a900460ff16908060030160019054906101000a900473ffffffffffffffffffffffffffffffffffffffff16908060030160159054906101000a900460ff16905084565b60606000606060008060008060008089815260200190815260200160002090508060000180548060200260200160405190810160405280929190818152602001828054801561029457602002820191906000526020600020905b8160009054906101000a900473ffffffffffffffffffffffffffffffffffffffff1673ffffffffffffffffffffffffffffffffffffffff168152602001906001019080831161024a575b505050505096508060010160009054906101000a900473ffffffffffffffffffffffffffffffffffffffff169550600367ffffffffffffffff8111156102dd576102dc6117b8565b5b60405190808252806020026020018201604052801561031057816020015b60608152602001906001900390816102fb5790505b50945060005b600381101561046857600367ffffffffffffffff81111561033a576103396117b8565b5b6040519080825280602002602001820160405280156103685781602001602082028036833780820191505090505b5086828151811061037c5761037b6117e7565b5b602002602001018190525060005b600381101561045457826002016000838152602001908152602001600020600082815260200190815260200160002060009054906101000a900473ffffffffffffffffffffffffffffffffffffffff168783815181106103ed576103ec6117e7565b5b60200260200101518281518110610407576104066117e7565b5b602002602001019073ffffffffffffffffffffffffffffffffffffffff16908173ffffffffffffffffffffffffffffffffffffffff1681525050808061044c90611845565b91505061038a565b50808061046090611845565b915050610316565b508060030160009054906101000a900460ff1693508060030160019054906101000a900473ffffffffffffffffffffffffffffffffffffffff1692508060030160159054906101000a900460ff1691505091939550919395565b60015481565b600160008154809291906104db90611845565b9190505550565b60008060008581526020019081526020016000209050600115158160030160009054906101000a900460ff16151514610550576040517f08c379a0000000000000000000000000000000000000000000000000000000008152600401610547906118ea565b60405180910390fd5b600073ffffffffffffffffffffffffffffffffffffffff16816002016000858152602001908152602001600020600084815260200190815260200160002060009054906101000a900473ffffffffffffffffffffffffffffffffffffffff1673ffffffffffffffffffffffffffffffffffffffff1614610605576040517f08c379a00000000000000000000000000000000000000000000000000000000081526004016105fc90611956565b60405180910390fd5b8060010160009054906101000a900473ffffffffffffffffffffffffffffffffffffffff1673ffffffffffffffffffffffffffffffffffffffff163373ffffffffffffffffffffffffffffffffffffffff1614610697576040517f08c379a000000000000000000000000000000000000000000000000000000000815260040161068e906119c2565b60405180910390fd5b33816002016000858152602001908152602001600020600084815260200190815260200160002060006101000a81548173ffffffffffffffffffffffffffffffffffffffff021916908373ffffffffffffffffffffffffffffffffffffffff1602179055506107098160020133610bbb565b1561079557600080600086815260200190815260200160002060030160006101000a81548160ff0219169083151502179055503360008086815260200190815260200160002060030160016101000a81548173ffffffffffffffffffffffffffffffffffffffff021916908373ffffffffffffffffffffffffffffffffffffffff1602179055506108dd565b6107a1816002016111e9565b1561080757600080600086815260200190815260200160002060030160006101000a81548160ff021916908315150217905550600160008086815260200190815260200160002060030160156101000a81548160ff0219169083151502179055506108dc565b6108998160000180548060200260200160405190810160405280929190818152602001828054801561088e57602002820191906000526020600020905b8160009054906101000a900473ffffffffffffffffffffffffffffffffffffffff1673ffffffffffffffffffffffffffffffffffffffff1681526020019060010190808311610844575b5050505050336112ba565b8160010160006101000a81548173ffffffffffffffffffffffffffffffffffffffff021916908373ffffffffffffffffffffffffffffffffffffffff1602179055505b5b50505050565b6002600080838152602001908152602001600020600001805490501461093e576040517f08c379a000000000000000000000000000000000000000000000000000000000815260040161093590611a54565b60405180910390fd5b6000151560008083815260200190815260200160002060030160009054906101000a900460ff161515146109a7576040517f08c379a000000000000000000000000000000000000000000000000000000000815260040161099e90611ac0565b60405180910390fd5b600160008083815260200190815260200160002060030160006101000a81548160ff0219169083151502179055506000808281526020019081526020016000206000016000815481106109fd576109fc6117e7565b5b9060005260206000200160009054906101000a900473ffffffffffffffffffffffffffffffffffffffff1660008083815260200190815260200160002060010160006101000a81548173ffffffffffffffffffffffffffffffffffffffff021916908373ffffffffffffffffffffffffffffffffffffffff16021790555050565b60026000808381526020019081526020016000206000018054905010610ad9576040517f08c379a0000000000000000000000000000000000000000000000000000000008152600401610ad090611b2c565b60405180910390fd5b6000151560008083815260200190815260200160002060030160009054906101000a900460ff16151514610b42576040517f08c379a0000000000000000000000000000000000000000000000000000000008152600401610b3990611ac0565b60405180910390fd5b600080828152602001908152602001600020600001339080600181540180825580915050600190039060005260206000200160009091909190916101000a81548173ffffffffffffffffffffffffffffffffffffffff021916908373ffffffffffffffffffffffffffffffffffffffff16021790555050565b600080600090505b6003811015610d56578273ffffffffffffffffffffffffffffffffffffffff16846000838152602001908152602001600020600080815260200190815260200160002060009054906101000a900473ffffffffffffffffffffffffffffffffffffffff1673ffffffffffffffffffffffffffffffffffffffff16148015610cb957508273ffffffffffffffffffffffffffffffffffffffff1684600083815260200190815260200160002060006001815260200190815260200160002060009054906101000a900473ffffffffffffffffffffffffffffffffffffffff1673ffffffffffffffffffffffffffffffffffffffff16145b8015610d3457508273ffffffffffffffffffffffffffffffffffffffff1684600083815260200190815260200160002060006002815260200190815260200160002060009054906101000a900473ffffffffffffffffffffffffffffffffffffffff1673ffffffffffffffffffffffffffffffffffffffff16145b15610d435760019150506111e3565b8080610d4e90611845565b915050610bc3565b5060005b6003811015610eed578273ffffffffffffffffffffffffffffffffffffffff16846000808152602001908152602001600020600083815260200190815260200160002060009054906101000a900473ffffffffffffffffffffffffffffffffffffffff1673ffffffffffffffffffffffffffffffffffffffff16148015610e5057508273ffffffffffffffffffffffffffffffffffffffff1684600060018152602001908152602001600020600083815260200190815260200160002060009054906101000a900473ffffffffffffffffffffffffffffffffffffffff1673ffffffffffffffffffffffffffffffffffffffff16145b8015610ecb57508273ffffffffffffffffffffffffffffffffffffffff1684600060028152602001908152602001600020600083815260200190815260200160002060009054906101000a900473ffffffffffffffffffffffffffffffffffffffff1673ffffffffffffffffffffffffffffffffffffffff16145b15610eda5760019150506111e3565b8080610ee590611845565b915050610d5a565b508173ffffffffffffffffffffffffffffffffffffffff16836000808152602001908152602001600020600080815260200190815260200160002060009054906101000a900473ffffffffffffffffffffffffffffffffffffffff1673ffffffffffffffffffffffffffffffffffffffff16148015610fdc57508173ffffffffffffffffffffffffffffffffffffffff168360006001815260200190815260200160002060006001815260200190815260200160002060009054906101000a900473ffffffffffffffffffffffffffffffffffffffff1673ffffffffffffffffffffffffffffffffffffffff16145b801561105857508173ffffffffffffffffffffffffffffffffffffffff168360006002815260200190815260200160002060006002815260200190815260200160002060009054906101000a900473ffffffffffffffffffffffffffffffffffffffff1673ffffffffffffffffffffffffffffffffffffffff16145b1561106657600190506111e3565b8173ffffffffffffffffffffffffffffffffffffffff1683600080815260200190815260200160002060006002815260200190815260200160002060009054906101000a900473ffffffffffffffffffffffffffffffffffffffff1673ffffffffffffffffffffffffffffffffffffffff1614801561115557508173ffffffffffffffffffffffffffffffffffffffff168360006001815260200190815260200160002060006001815260200190815260200160002060009054906101000a900473ffffffffffffffffffffffffffffffffffffffff1673ffffffffffffffffffffffffffffffffffffffff16145b80156111d057508173ffffffffffffffffffffffffffffffffffffffff1683600060028152602001908152602001600020600080815260200190815260200160002060009054906101000a900473ffffffffffffffffffffffffffffffffffffffff1673ffffffffffffffffffffffffffffffffffffffff16145b156111de57600190506111e3565b600090505b92915050565b600080600090505b60038110156112af5760005b600381101561129b57600073ffffffffffffffffffffffffffffffffffffffff16846000848152602001908152602001600020600083815260200190815260200160002060009054906101000a900473ffffffffffffffffffffffffffffffffffffffff1673ffffffffffffffffffffffffffffffffffffffff1603611288576000925050506112b5565b808061129390611845565b9150506111fd565b5080806112a790611845565b9150506111f1565b50600190505b919050565b600080600090505b8351811015611392578273ffffffffffffffffffffffffffffffffffffffff168482815181106112f5576112f46117e7565b5b602002602001015173ffffffffffffffffffffffffffffffffffffffff160361137f57600184516113269190611b4c565b810361135057836000815181106113405761133f6117e7565b5b60200260200101519150506113ce565b8360018261135e9190611b80565b8151811061136f5761136e6117e7565b5b60200260200101519150506113ce565b808061138a90611845565b9150506112c2565b506040517f08c379a00000000000000000000000000000000000000000000000000000000081526004016113c590611c00565b60405180910390fd5b92915050565b600080fd5b6000819050919050565b6113ec816113d9565b81146113f757600080fd5b50565b600081359050611409816113e3565b92915050565b600060208284031215611425576114246113d4565b5b6000611433848285016113fa565b91505092915050565b600073ffffffffffffffffffffffffffffffffffffffff82169050919050565b60006114678261143c565b9050919050565b6114778161145c565b82525050565b60008115159050919050565b6114928161147d565b82525050565b60006080820190506114ad600083018761146e565b6114ba6020830186611489565b6114c7604083018561146e565b6114d46060830184611489565b95945050505050565b600081519050919050565b600082825260208201905092915050565b6000819050602082019050919050565b6115128161145c565b82525050565b60006115248383611509565b60208301905092915050565b6000602082019050919050565b6000611548826114dd565b61155281856114e8565b935061155d836114f9565b8060005b8381101561158e5781516115758882611518565b975061158083611530565b925050600181019050611561565b5085935050505092915050565b600081519050919050565b600082825260208201905092915050565b6000819050602082019050919050565b600082825260208201905092915050565b60006115e3826114dd565b6115ed81856115c7565b93506115f8836114f9565b8060005b838110156116295781516116108882611518565b975061161b83611530565b9250506001810190506115fc565b5085935050505092915050565b600061164283836115d8565b905092915050565b6000602082019050919050565b60006116628261159b565b61166c81856115a6565b93508360208202850161167e856115b7565b8060005b858110156116ba578484038952815161169b8582611636565b94506116a68361164a565b925060208a01995050600181019050611682565b50829750879550505050505092915050565b600060c08201905081810360008301526116e6818961153d565b90506116f5602083018861146e565b81810360408301526117078187611657565b90506117166060830186611489565b611723608083018561146e565b61173060a0830184611489565b979650505050505050565b611744816113d9565b82525050565b600060208201905061175f600083018461173b565b92915050565b60008060006060848603121561177e5761177d6113d4565b5b600061178c868287016113fa565b935050602061179d868287016113fa565b92505060406117ae868287016113fa565b9150509250925092565b7f4e487b7100000000000000000000000000000000000000000000000000000000600052604160045260246000fd5b7f4e487b7100000000000000000000000000000000000000000000000000000000600052603260045260246000fd5b7f4e487b7100000000000000000000000000000000000000000000000000000000600052601160045260246000fd5b6000611850826113d9565b91507fffffffffffffffffffffffffffffffffffffffffffffffffffffffffffffffff820361188257611881611816565b5b600182019050919050565b600082825260208201905092915050565b7f47616d6520686173206e6f742073746172746564207965742e00000000000000600082015250565b60006118d460198361188d565b91506118df8261189e565b602082019050919050565b60006020820190508181036000830152611903816118c7565b9050919050565b7f43656c6c20697320616c7265616479206f636375706965642e00000000000000600082015250565b600061194060198361188d565b915061194b8261190a565b602082019050919050565b6000602082019050818103600083015261196f81611933565b9050919050565b7f4e6f7420796f7572207475726e2e000000000000000000000000000000000000600082015250565b60006119ac600e8361188d565b91506119b782611976565b602082019050919050565b600060208201905081810360008301526119db8161199f565b9050919050565b7f4e656564203220706c617965727320746f207374617274207468652067616d6560008201527f2e00000000000000000000000000000000000000000000000000000000000000602082015250565b6000611a3e60218361188d565b9150611a49826119e2565b604082019050919050565b60006020820190508181036000830152611a6d81611a31565b9050919050565b7f47616d652068617320616c726561647920737461727465642e00000000000000600082015250565b6000611aaa60198361188d565b9150611ab582611a74565b602082019050919050565b60006020820190508181036000830152611ad981611a9d565b9050919050565b7f47616d6520697320616c72656164792066756c6c2e0000000000000000000000600082015250565b6000611b1660158361188d565b9150611b2182611ae0565b602082019050919050565b60006020820190508181036000830152611b4581611b09565b9050919050565b6000611b57826113d9565b9150611b62836113d9565b9250828203905081811115611b7a57611b79611816565b5b92915050565b6000611b8b826113d9565b9150611b96836113d9565b9250828201905080821115611bae57611bad611816565b5b92915050565b7f506c61796572206e6f7420666f756e642e000000000000000000000000000000600082015250565b6000611bea60118361188d565b9150611bf582611bb4565b602082019050919050565b60006020820190508181036000830152611c1981611bdd565b905091905056fea2646970667358221220c9eaf4c1fa77d5bbf975daf19d71387ee6d80bea1d65f258d4fda45bb9f15dd164736f6c63430008120033",
  "linkReferences": {},
  "deployedLinkReferences": {}
}